{
  "contractName": "Swap",
  "abi": [
    {
      "inputs": [
        {
          "internalType": "address",
          "name": "_usdcTokenAddress",
          "type": "address"
        },
        {
          "internalType": "address",
          "name": "initialOwner",
          "type": "address"
        }
      ],
      "stateMutability": "nonpayable",
      "type": "constructor"
    },
    {
      "anonymous": false,
      "inputs": [
        {
          "indexed": true,
          "internalType": "address",
          "name": "user",
          "type": "address"
        },
        {
          "indexed": true,
          "internalType": "address",
          "name": "recipient",
          "type": "address"
        },
        {
          "indexed": false,
          "internalType": "uint256",
          "name": "amountTokenIn",
          "type": "uint256"
        },
        {
          "indexed": false,
          "internalType": "uint256",
          "name": "amountTokenOut",
          "type": "uint256"
        },
        {
          "indexed": false,
          "internalType": "bool",
          "name": "isETHtoToken",
          "type": "bool"
        }
      ],
      "name": "Conversion",
      "type": "event"
    },
    {
      "inputs": [],
      "name": "usdcToken",
      "outputs": [
        {
          "internalType": "contract IERC20",
          "name": "",
          "type": "address"
        }
      ],
      "stateMutability": "view",
      "type": "function",
      "constant": true
    },
    {
      "stateMutability": "payable",
      "type": "receive",
      "payable": true
    },
    {
      "inputs": [
        {
          "internalType": "uint256",
          "name": "amountUSDC",
          "type": "uint256"
        },
        {
          "internalType": "address",
          "name": "recipient",
          "type": "address"
        }
      ],
      "name": "convertUSDCtoETH",
      "outputs": [],
      "stateMutability": "nonpayable",
      "type": "function"
    },
    {
      "inputs": [
        {
          "internalType": "uint256",
          "name": "amountETH",
          "type": "uint256"
        },
        {
          "internalType": "address",
          "name": "recipient",
          "type": "address"
        }
      ],
      "name": "convertETHtoUSDC",
      "outputs": [],
      "stateMutability": "payable",
      "type": "function",
      "payable": true
    }
  ],
  "bytecode": "0x608060405234801561001057600080fd5b506040516109cc3803806109cc8339818101604052810190610032919061011d565b816000806101000a81548173ffffffffffffffffffffffffffffffffffffffff021916908373ffffffffffffffffffffffffffffffffffffffff16021790555080600160006101000a81548173ffffffffffffffffffffffffffffffffffffffff021916908373ffffffffffffffffffffffffffffffffffffffff160217905550505061015d565b600080fd5b600073ffffffffffffffffffffffffffffffffffffffff82169050919050565b60006100ea826100bf565b9050919050565b6100fa816100df565b811461010557600080fd5b50565b600081519050610117816100f1565b92915050565b60008060408385031215610134576101336100ba565b5b600061014285828601610108565b925050602061015385828601610108565b9150509250929050565b6108608061016c6000396000f3fe6080604052600436106100385760003560e01c806311eac8551461004457806358c8bfba1461006f578063ca21eedd146100985761003f565b3661003f57005b600080fd5b34801561005057600080fd5b506100596100b4565b60405161006691906104df565b60405180910390f35b34801561007b57600080fd5b5061009660048036038101906100919190610573565b6100d8565b005b6100b260048036038101906100ad9190610573565b6102e5565b005b60008054906101000a900473ffffffffffffffffffffffffffffffffffffffff1681565b60008054906101000a900473ffffffffffffffffffffffffffffffffffffffff1673ffffffffffffffffffffffffffffffffffffffff1663095ea7b330846040518363ffffffff1660e01b81526004016101339291906105d1565b6020604051808303816000875af1158015610152573d6000803e3d6000fd5b505050506040513d601f19601f820116820180604052508101906101769190610632565b5060008054906101000a900473ffffffffffffffffffffffffffffffffffffffff1673ffffffffffffffffffffffffffffffffffffffff166323b872dd3330856040518463ffffffff1660e01b81526004016101d49392919061065f565b6020604051808303816000875af11580156101f3573d6000803e3d6000fd5b505050506040513d601f19601f820116820180604052508101906102179190610632565b50600061022261044c565b8361022d91906106f4565b90508173ffffffffffffffffffffffffffffffffffffffff166108fc829081150290604051600060405180830381858888f19350505050158015610275573d6000803e3d6000fd5b508173ffffffffffffffffffffffffffffffffffffffff163373ffffffffffffffffffffffffffffffffffffffff167f5ae3a6573300cf2a1c0cd3e277b97816416290372ea0fb60b924e059d4ab2955858460006040516102d893929190610734565b60405180910390a3505050565b813414610327576040517f08c379a000000000000000000000000000000000000000000000000000000000815260040161031e906107c8565b60405180910390fd5b6000610331610456565b8361033c91906107e8565b905060008054906101000a900473ffffffffffffffffffffffffffffffffffffffff1673ffffffffffffffffffffffffffffffffffffffff1663a9059cbb83836040518363ffffffff1660e01b81526004016103999291906105d1565b6020604051808303816000875af11580156103b8573d6000803e3d6000fd5b505050506040513d601f19601f820116820180604052508101906103dc9190610632565b508173ffffffffffffffffffffffffffffffffffffffff163373ffffffffffffffffffffffffffffffffffffffff167f5ae3a6573300cf2a1c0cd3e277b97816416290372ea0fb60b924e059d4ab29558584600160405161043f93929190610734565b60405180910390a3505050565b60006107d0905090565b60006107d0905090565b600073ffffffffffffffffffffffffffffffffffffffff82169050919050565b6000819050919050565b60006104a56104a061049b84610460565b610480565b610460565b9050919050565b60006104b78261048a565b9050919050565b60006104c9826104ac565b9050919050565b6104d9816104be565b82525050565b60006020820190506104f460008301846104d0565b92915050565b600080fd5b6000819050919050565b610512816104ff565b811461051d57600080fd5b50565b60008135905061052f81610509565b92915050565b600061054082610460565b9050919050565b61055081610535565b811461055b57600080fd5b50565b60008135905061056d81610547565b92915050565b6000806040838503121561058a576105896104fa565b5b600061059885828601610520565b92505060206105a98582860161055e565b9150509250929050565b6105bc81610535565b82525050565b6105cb816104ff565b82525050565b60006040820190506105e660008301856105b3565b6105f360208301846105c2565b9392505050565b60008115159050919050565b61060f816105fa565b811461061a57600080fd5b50565b60008151905061062c81610606565b92915050565b600060208284031215610648576106476104fa565b5b60006106568482850161061d565b91505092915050565b600060608201905061067460008301866105b3565b61068160208301856105b3565b61068e60408301846105c2565b949350505050565b7f4e487b7100000000000000000000000000000000000000000000000000000000600052601260045260246000fd5b7f4e487b7100000000000000000000000000000000000000000000000000000000600052601160045260246000fd5b60006106ff826104ff565b915061070a836104ff565b92508261071a57610719610696565b5b828204905092915050565b61072e816105fa565b82525050565b600060608201905061074960008301866105c2565b61075660208301856105c2565b6107636040830184610725565b949350505050565b600082825260208201905092915050565b7f496e636f7272656374204554482076616c75652073656e740000000000000000600082015250565b60006107b260188361076b565b91506107bd8261077c565b602082019050919050565b600060208201905081810360008301526107e1816107a5565b9050919050565b60006107f3826104ff565b91506107fe836104ff565b925082820261080c816104ff565b91508282048414831517610823576108226106c5565b5b509291505056fea2646970667358221220a5fb7383144193512fb5f7e657fee02f70abe24c3211e9a3a17268b3059e75d864736f6c63430008130033",
  "immutableReferences": {},
  "source": "// SPDX-License-Identifier: MIT\r\npragma solidity ^0.8.0;\r\n\r\nimport \"@openzeppelin/contracts/token/ERC20/IERC20.sol\";\r\nimport \"@openzeppelin/contracts/access/Ownable.sol\";\r\n\r\ncontract Swap {\r\n    IERC20 public usdcToken;\r\n    address contractOwner;\r\n\r\n    event Conversion(address indexed user, address indexed recipient, uint256 amountTokenIn, uint256 amountTokenOut, bool isETHtoToken);\r\n\r\n    constructor(address _usdcTokenAddress, address initialOwner){\r\n        usdcToken = IERC20(_usdcTokenAddress);\r\n        contractOwner = initialOwner;\r\n    }\r\n\r\n    function convertUSDCtoETH(uint256 amountUSDC, address recipient) external  {\r\n        usdcToken.approve(address(this), amountUSDC);\r\n        usdcToken.transferFrom(msg.sender, address(this), amountUSDC);\r\n\r\n        uint256 amountETH = amountUSDC / getCurrentUSDCtoETHConversionRate();\r\n\r\n        payable(recipient).transfer(amountETH);\r\n\r\n        emit Conversion(msg.sender, recipient, amountUSDC, amountETH, false);\r\n    }\r\n\r\n    function convertETHtoUSDC(uint256 amountETH, address recipient) external payable  {\r\n        require(msg.value == amountETH, \"Incorrect ETH value sent\");\r\n        \r\n        uint256 amountUSDC = amountETH * getCurrentETHtoUSDCConversionRate();\r\n\r\n        usdcToken.transfer(recipient, amountUSDC);\r\n\r\n        emit Conversion(msg.sender, recipient, amountETH, amountUSDC, true);\r\n    }\r\n\r\n    function getCurrentUSDCtoETHConversionRate() internal pure returns (uint256) {\r\n        return 2000; // 1 USDC = 1 wei\r\n    }\r\n\r\n    function getCurrentETHtoUSDCConversionRate() internal pure returns (uint256) {\r\n        return 2000; // 1 wei = 1 USDC\r\n    }\r\n\r\n    receive() external payable {\r\n    }\r\n}\r\n",
  "sourcePath": "/home/animesh/Desktop/DuoSwap/DuoSwap_Contracts/contracts/Swap.sol",
  "compiler": {
    "name": "solc",
    "version": "0.8.19+commit.7dd6d404.Emscripten.clang"
  },
  "schemaVersion": "3.4.16",
  "updatedAt": "2023-11-28T16:01:48.787Z",
  "networkType": "ethereum",
  "devdoc": {
    "kind": "dev",
    "methods": {},
    "version": 1
  },
  "userdoc": {
    "kind": "user",
    "methods": {},
    "version": 1
  }
}