{
  "contractName": "USDCtoETHConverter",
  "abi": [
    {
      "inputs": [
        {
          "internalType": "address",
          "name": "_usdcTokenAddress",
          "type": "address"
        },
        {
          "internalType": "address",
          "name": "initialOwner",
          "type": "address"
        }
      ],
      "stateMutability": "nonpayable",
      "type": "constructor"
    },
    {
      "anonymous": false,
      "inputs": [
        {
          "indexed": true,
          "internalType": "address",
          "name": "user",
          "type": "address"
        },
        {
          "indexed": true,
          "internalType": "address",
          "name": "recipient",
          "type": "address"
        },
        {
          "indexed": false,
          "internalType": "uint256",
          "name": "amountTokenIn",
          "type": "uint256"
        },
        {
          "indexed": false,
          "internalType": "uint256",
          "name": "amountTokenOut",
          "type": "uint256"
        },
        {
          "indexed": false,
          "internalType": "bool",
          "name": "isETHtoToken",
          "type": "bool"
        }
      ],
      "name": "Conversion",
      "type": "event"
    },
    {
      "anonymous": false,
      "inputs": [
        {
          "indexed": true,
          "internalType": "address",
          "name": "previousOwner",
          "type": "address"
        },
        {
          "indexed": true,
          "internalType": "address",
          "name": "newOwner",
          "type": "address"
        }
      ],
      "name": "OwnershipTransferred",
      "type": "event"
    },
    {
      "inputs": [],
      "name": "owner",
      "outputs": [
        {
          "internalType": "address",
          "name": "",
          "type": "address"
        }
      ],
      "stateMutability": "view",
      "type": "function"
    },
    {
      "inputs": [],
      "name": "renounceOwnership",
      "outputs": [],
      "stateMutability": "nonpayable",
      "type": "function"
    },
    {
      "inputs": [
        {
          "internalType": "address",
          "name": "newOwner",
          "type": "address"
        }
      ],
      "name": "transferOwnership",
      "outputs": [],
      "stateMutability": "nonpayable",
      "type": "function"
    },
    {
      "inputs": [],
      "name": "usdcToken",
      "outputs": [
        {
          "internalType": "contract IERC20",
          "name": "",
          "type": "address"
        }
      ],
      "stateMutability": "view",
      "type": "function"
    },
    {
      "stateMutability": "payable",
      "type": "receive"
    },
    {
      "inputs": [
        {
          "internalType": "uint256",
          "name": "amountUSDC",
          "type": "uint256"
        },
        {
          "internalType": "address",
          "name": "recipient",
          "type": "address"
        }
      ],
      "name": "convertUSDCtoETH",
      "outputs": [],
      "stateMutability": "nonpayable",
      "type": "function"
    },
    {
      "inputs": [
        {
          "internalType": "uint256",
          "name": "amountETH",
          "type": "uint256"
        },
        {
          "internalType": "address",
          "name": "recipient",
          "type": "address"
        }
      ],
      "name": "convertETHtoUSDC",
      "outputs": [],
      "stateMutability": "payable",
      "type": "function"
    }
  ],
  "bytecode": "0x608060405234801561001057600080fd5b5060405162000d9938038062000d9983398181016040528101906100349190610208565b6100506100456100d960201b60201c565b6100e160201b60201c565b81600160006101000a81548173ffffffffffffffffffffffffffffffffffffffff021916908373ffffffffffffffffffffffffffffffffffffffff16021790555080600260006101000a81548173ffffffffffffffffffffffffffffffffffffffff021916908373ffffffffffffffffffffffffffffffffffffffff1602179055505050610248565b600033905090565b60008060009054906101000a900473ffffffffffffffffffffffffffffffffffffffff169050816000806101000a81548173ffffffffffffffffffffffffffffffffffffffff021916908373ffffffffffffffffffffffffffffffffffffffff1602179055508173ffffffffffffffffffffffffffffffffffffffff168173ffffffffffffffffffffffffffffffffffffffff167f8be0079c531659141344cd1fd0a4f28419497f9722a3daafe3b4186f6b6457e060405160405180910390a35050565b600080fd5b600073ffffffffffffffffffffffffffffffffffffffff82169050919050565b60006101d5826101aa565b9050919050565b6101e5816101ca565b81146101f057600080fd5b50565b600081519050610202816101dc565b92915050565b6000806040838503121561021f5761021e6101a5565b5b600061022d858286016101f3565b925050602061023e858286016101f3565b9150509250929050565b610b4180620002586000396000f3fe6080604052600436106100595760003560e01c806311eac8551461006557806358c8bfba14610090578063715018a6146100b95780638da5cb5b146100d0578063ca21eedd146100fb578063f2fde38b1461011757610060565b3661006057005b600080fd5b34801561007157600080fd5b5061007a610140565b60405161008791906106da565b60405180910390f35b34801561009c57600080fd5b506100b760048036038101906100b2919061076e565b610166565b005b3480156100c557600080fd5b506100ce6102d6565b005b3480156100dc57600080fd5b506100e56102ea565b6040516100f291906107bd565b60405180910390f35b6101156004803603810190610110919061076e565b610313565b005b34801561012357600080fd5b5061013e600480360381019061013991906107d8565b61047c565b005b600160009054906101000a900473ffffffffffffffffffffffffffffffffffffffff1681565b600160009054906101000a900473ffffffffffffffffffffffffffffffffffffffff1673ffffffffffffffffffffffffffffffffffffffff166323b872dd3330856040518463ffffffff1660e01b81526004016101c593929190610814565b6020604051808303816000875af11580156101e4573d6000803e3d6000fd5b505050506040513d601f19601f820116820180604052508101906102089190610883565b5060006102136104ff565b8361021e91906108df565b90508173ffffffffffffffffffffffffffffffffffffffff166108fc829081150290604051600060405180830381858888f19350505050158015610266573d6000803e3d6000fd5b508173ffffffffffffffffffffffffffffffffffffffff163373ffffffffffffffffffffffffffffffffffffffff167f5ae3a6573300cf2a1c0cd3e277b97816416290372ea0fb60b924e059d4ab2955858460006040516102c993929190610930565b60405180910390a3505050565b6102de610508565b6102e86000610586565b565b60008060009054906101000a900473ffffffffffffffffffffffffffffffffffffffff16905090565b813414610355576040517f08c379a000000000000000000000000000000000000000000000000000000000815260040161034c906109c4565b60405180910390fd5b600061035f61064a565b8361036a91906108df565b9050600160009054906101000a900473ffffffffffffffffffffffffffffffffffffffff1673ffffffffffffffffffffffffffffffffffffffff1663a9059cbb83836040518363ffffffff1660e01b81526004016103c99291906109e4565b6020604051808303816000875af11580156103e8573d6000803e3d6000fd5b505050506040513d601f19601f8201168201806040525081019061040c9190610883565b508173ffffffffffffffffffffffffffffffffffffffff163373ffffffffffffffffffffffffffffffffffffffff167f5ae3a6573300cf2a1c0cd3e277b97816416290372ea0fb60b924e059d4ab29558584600160405161046f93929190610930565b60405180910390a3505050565b610484610508565b600073ffffffffffffffffffffffffffffffffffffffff168173ffffffffffffffffffffffffffffffffffffffff16036104f3576040517f08c379a00000000000000000000000000000000000000000000000000000000081526004016104ea90610a7f565b60405180910390fd5b6104fc81610586565b50565b60006001905090565b610510610653565b73ffffffffffffffffffffffffffffffffffffffff1661052e6102ea565b73ffffffffffffffffffffffffffffffffffffffff1614610584576040517f08c379a000000000000000000000000000000000000000000000000000000000815260040161057b90610aeb565b60405180910390fd5b565b60008060009054906101000a900473ffffffffffffffffffffffffffffffffffffffff169050816000806101000a81548173ffffffffffffffffffffffffffffffffffffffff021916908373ffffffffffffffffffffffffffffffffffffffff1602179055508173ffffffffffffffffffffffffffffffffffffffff168173ffffffffffffffffffffffffffffffffffffffff167f8be0079c531659141344cd1fd0a4f28419497f9722a3daafe3b4186f6b6457e060405160405180910390a35050565b60006001905090565b600033905090565b600073ffffffffffffffffffffffffffffffffffffffff82169050919050565b6000819050919050565b60006106a061069b6106968461065b565b61067b565b61065b565b9050919050565b60006106b282610685565b9050919050565b60006106c4826106a7565b9050919050565b6106d4816106b9565b82525050565b60006020820190506106ef60008301846106cb565b92915050565b600080fd5b6000819050919050565b61070d816106fa565b811461071857600080fd5b50565b60008135905061072a81610704565b92915050565b600061073b8261065b565b9050919050565b61074b81610730565b811461075657600080fd5b50565b60008135905061076881610742565b92915050565b60008060408385031215610785576107846106f5565b5b60006107938582860161071b565b92505060206107a485828601610759565b9150509250929050565b6107b781610730565b82525050565b60006020820190506107d260008301846107ae565b92915050565b6000602082840312156107ee576107ed6106f5565b5b60006107fc84828501610759565b91505092915050565b61080e816106fa565b82525050565b600060608201905061082960008301866107ae565b61083660208301856107ae565b6108436040830184610805565b949350505050565b60008115159050919050565b6108608161084b565b811461086b57600080fd5b50565b60008151905061087d81610857565b92915050565b600060208284031215610899576108986106f5565b5b60006108a78482850161086e565b91505092915050565b7f4e487b7100000000000000000000000000000000000000000000000000000000600052601160045260246000fd5b60006108ea826106fa565b91506108f5836106fa565b9250828202610903816106fa565b9150828204841483151761091a576109196108b0565b5b5092915050565b61092a8161084b565b82525050565b60006060820190506109456000830186610805565b6109526020830185610805565b61095f6040830184610921565b949350505050565b600082825260208201905092915050565b7f496e636f7272656374204554482076616c75652073656e740000000000000000600082015250565b60006109ae601883610967565b91506109b982610978565b602082019050919050565b600060208201905081810360008301526109dd816109a1565b9050919050565b60006040820190506109f960008301856107ae565b610a066020830184610805565b9392505050565b7f4f776e61626c653a206e6577206f776e657220697320746865207a65726f206160008201527f6464726573730000000000000000000000000000000000000000000000000000602082015250565b6000610a69602683610967565b9150610a7482610a0d565b604082019050919050565b60006020820190508181036000830152610a9881610a5c565b9050919050565b7f4f776e61626c653a2063616c6c6572206973206e6f7420746865206f776e6572600082015250565b6000610ad5602083610967565b9150610ae082610a9f565b602082019050919050565b60006020820190508181036000830152610b0481610ac8565b905091905056fea26469706673582212209f1d2310777af9d272ef8e908b7a2941587f82803d66a49e43f530d271a9286864736f6c63430008130033",
  "immutableReferences": {},
  "source": "// SPDX-License-Identifier: MIT\r\npragma solidity ^0.8.0;\r\n\r\nimport \"@openzeppelin/contracts/token/ERC20/IERC20.sol\";\r\nimport \"@openzeppelin/contracts/access/Ownable.sol\";\r\n\r\ncontract USDCtoETHConverter is Ownable {\r\n    IERC20 public usdcToken;\r\n    address contractOwner;\r\n\r\n    event Conversion(address indexed user, address indexed recipient, uint256 amountTokenIn, uint256 amountTokenOut, bool isETHtoToken);\r\n\r\n    constructor(address _usdcTokenAddress, address initialOwner) Ownable() {\r\n        usdcToken = IERC20(_usdcTokenAddress);\r\n        contractOwner = initialOwner;\r\n    }\r\n\r\n    function convertUSDCtoETH(uint256 amountUSDC, address recipient) external  {\r\n        usdcToken.transferFrom(msg.sender, address(this), amountUSDC);\r\n\r\n        uint256 amountETH = amountUSDC * getCurrentUSDCtoETHConversionRate();\r\n\r\n        payable(recipient).transfer(amountETH);\r\n\r\n        emit Conversion(msg.sender, recipient, amountUSDC, amountETH, false);\r\n    }\r\n\r\n    function convertETHtoUSDC(uint256 amountETH, address recipient) external payable  {\r\n        require(msg.value == amountETH, \"Incorrect ETH value sent\");\r\n        \r\n        uint256 amountUSDC = amountETH * getCurrentETHtoUSDCConversionRate();\r\n\r\n        usdcToken.transfer(recipient, amountUSDC);\r\n\r\n        emit Conversion(msg.sender, recipient, amountETH, amountUSDC, true);\r\n    }\r\n\r\n    function getCurrentUSDCtoETHConversionRate() internal pure returns (uint256) {\r\n        return 1; // 1 USDC = 1 wei\r\n    }\r\n\r\n    function getCurrentETHtoUSDCConversionRate() internal pure returns (uint256) {\r\n        return 1; // 1 wei = 1 USDC\r\n    }\r\n\r\n    receive() external payable {\r\n    }\r\n}\r\n",
  "sourcePath": "/home/animesh/Desktop/DuoSwap/DuoSwap_Contracts/contracts/swap.sol",
  "compiler": {
    "name": "solc",
    "version": "0.8.19+commit.7dd6d404.Emscripten.clang"
  },
  "schemaVersion": "3.4.16",
  "updatedAt": "2023-11-28T08:57:50.869Z",
  "devdoc": {
    "kind": "dev",
    "methods": {
      "owner()": {
        "details": "Returns the address of the current owner."
      },
      "renounceOwnership()": {
        "details": "Leaves the contract without owner. It will not be possible to call `onlyOwner` functions. Can only be called by the current owner. NOTE: Renouncing ownership will leave the contract without an owner, thereby disabling any functionality that is only available to the owner."
      },
      "transferOwnership(address)": {
        "details": "Transfers ownership of the contract to a new account (`newOwner`). Can only be called by the current owner."
      }
    },
    "version": 1
  },
  "userdoc": {
    "kind": "user",
    "methods": {},
    "version": 1
  }
}